{"contracts/ECDSAVerifier.sol":{"ECDSAVerifier":{"abi":[{"inputs":[{"internalType":"bytes32","name":"_messageHash","type":"bytes32"}],"name":"getEthSignedMessageHash","outputs":[{"internalType":"bytes32","name":"","type":"bytes32"}],"stateMutability":"pure","type":"function"},{"inputs":[{"internalType":"address","name":"_to","type":"address"},{"internalType":"uint256","name":"_amount","type":"uint256"},{"internalType":"string","name":"_message","type":"string"},{"internalType":"uint256","name":"_nonce","type":"uint256"}],"name":"getMessageHash","outputs":[{"internalType":"bytes32","name":"","type":"bytes32"}],"stateMutability":"pure","type":"function"},{"inputs":[{"internalType":"bytes32","name":"_ethSignedMessageHash","type":"bytes32"},{"internalType":"bytes","name":"_signature","type":"bytes"}],"name":"recoverSigner","outputs":[{"internalType":"address","name":"","type":"address"}],"stateMutability":"pure","type":"function"},{"inputs":[{"internalType":"bytes","name":"sig","type":"bytes"}],"name":"splitSignature","outputs":[{"internalType":"bytes32","name":"r","type":"bytes32"},{"internalType":"bytes32","name":"s","type":"bytes32"},{"internalType":"uint8","name":"v","type":"uint8"}],"stateMutability":"pure","type":"function"},{"inputs":[{"internalType":"address","name":"_signer","type":"address"},{"internalType":"address","name":"_to","type":"address"},{"internalType":"uint256","name":"_amount","type":"uint256"},{"internalType":"string","name":"_message","type":"string"},{"internalType":"uint256","name":"_nonce","type":"uint256"},{"internalType":"bytes","name":"signature","type":"bytes"}],"name":"verify","outputs":[{"internalType":"bool","name":"","type":"bool"}],"stateMutability":"pure","type":"function"}],"evm":{"bytecode":{"linkReferences":{},"object":"608060405234801561001057600080fd5b50610b5d806100206000396000f3fe608060405234801561001057600080fd5b50600436106100575760003560e01c806397aba7f91461005c578063a35f8a401461008c578063a7bb5803146100bc578063abe5026a146100ee578063fa5408011461011e575b600080fd5b61007660048036038101906100719190610482565b61014e565b604051610083919061051f565b60405180910390f35b6100a660048036038101906100a1919061063d565b6101bd565b6040516100b391906106cf565b60405180910390f35b6100d660048036038101906100d191906106ea565b6101f6565b6040516100e59392919061074f565b60405180910390f35b61010860048036038101906101039190610786565b61025e565b6040516101159190610866565b60405180910390f35b61013860048036038101906101339190610881565b6102c2565b60405161014591906106cf565b60405180910390f35b60008060008061015d856101f6565b9250925092506001868285856040516000815260200160405260405161018694939291906108ae565b6020604051602081039080840390855afa1580156101a8573d6000803e3d6000fd5b50505060206040510351935050505092915050565b6000848484846040516020016101d694939291906109cd565b604051602081830303815290604052805190602001209050949350505050565b6000806000604184511461023f576040517f08c379a000000000000000000000000000000000000000000000000000000000815260040161023690610a74565b60405180910390fd5b6020840151925060408401519150606084015160001a90509193909250565b60008061026d878787876101bd565b9050600061027a826102c2565b90508873ffffffffffffffffffffffffffffffffffffffff1661029d828661014e565b73ffffffffffffffffffffffffffffffffffffffff1614925050509695505050505050565b6000816040516020016102d59190610b01565b604051602081830303815290604052805190602001209050919050565b6000604051905090565b600080fd5b600080fd5b6000819050919050565b61031981610306565b811461032457600080fd5b50565b60008135905061033681610310565b92915050565b600080fd5b600080fd5b6000601f19601f8301169050919050565b7f4e487b7100000000000000000000000000000000000000000000000000000000600052604160045260246000fd5b61038f82610346565b810181811067ffffffffffffffff821117156103ae576103ad610357565b5b80604052505050565b60006103c16102f2565b90506103cd8282610386565b919050565b600067ffffffffffffffff8211156103ed576103ec610357565b5b6103f682610346565b9050602081019050919050565b82818337600083830152505050565b6000610425610420846103d2565b6103b7565b90508281526020810184848401111561044157610440610341565b5b61044c848285610403565b509392505050565b600082601f8301126104695761046861033c565b5b8135610479848260208601610412565b91505092915050565b60008060408385031215610499576104986102fc565b5b60006104a785828601610327565b925050602083013567ffffffffffffffff8111156104c8576104c7610301565b5b6104d485828601610454565b9150509250929050565b600073ffffffffffffffffffffffffffffffffffffffff82169050919050565b6000610509826104de565b9050919050565b610519816104fe565b82525050565b60006020820190506105346000830184610510565b92915050565b610543816104fe565b811461054e57600080fd5b50565b6000813590506105608161053a565b92915050565b6000819050919050565b61057981610566565b811461058457600080fd5b50565b60008135905061059681610570565b92915050565b600067ffffffffffffffff8211156105b7576105b6610357565b5b6105c082610346565b9050602081019050919050565b60006105e06105db8461059c565b6103b7565b9050828152602081018484840111156105fc576105fb610341565b5b610607848285610403565b509392505050565b600082601f8301126106245761062361033c565b5b81356106348482602086016105cd565b91505092915050565b60008060008060808587031215610657576106566102fc565b5b600061066587828801610551565b945050602061067687828801610587565b935050604085013567ffffffffffffffff81111561069757610696610301565b5b6106a38782880161060f565b92505060606106b487828801610587565b91505092959194509250565b6106c981610306565b82525050565b60006020820190506106e460008301846106c0565b92915050565b600060208284031215610700576106ff6102fc565b5b600082013567ffffffffffffffff81111561071e5761071d610301565b5b61072a84828501610454565b91505092915050565b600060ff82169050919050565b61074981610733565b82525050565b600060608201905061076460008301866106c0565b61077160208301856106c0565b61077e6040830184610740565b949350505050565b60008060008060008060c087890312156107a3576107a26102fc565b5b60006107b189828a01610551565b96505060206107c289828a01610551565b95505060406107d389828a01610587565b945050606087013567ffffffffffffffff8111156107f4576107f3610301565b5b61080089828a0161060f565b935050608061081189828a01610587565b92505060a087013567ffffffffffffffff81111561083257610831610301565b5b61083e89828a01610454565b9150509295509295509295565b60008115159050919050565b6108608161084b565b82525050565b600060208201905061087b6000830184610857565b92915050565b600060208284031215610897576108966102fc565b5b60006108a584828501610327565b91505092915050565b60006080820190506108c360008301876106c0565b6108d06020830186610740565b6108dd60408301856106c0565b6108ea60608301846106c0565b95945050505050565b60008160601b9050919050565b600061090b826108f3565b9050919050565b600061091d82610900565b9050919050565b610935610930826104fe565b610912565b82525050565b6000819050919050565b61095661095182610566565b61093b565b82525050565b600081519050919050565b600081905092915050565b60005b83811015610990578082015181840152602081019050610975565b60008484015250505050565b60006109a78261095c565b6109b18185610967565b93506109c1818560208601610972565b80840191505092915050565b60006109d98287610924565b6014820191506109e98286610945565b6020820191506109f9828561099c565b9150610a058284610945565b60208201915081905095945050505050565b600082825260208201905092915050565b7f696e76616c6964207369676e6174757265206c656e6774680000000000000000600082015250565b6000610a5e601883610a17565b9150610a6982610a28565b602082019050919050565b60006020820190508181036000830152610a8d81610a51565b9050919050565b7f19457468657265756d205369676e6564204d6573736167653a0a333200000000600082015250565b6000610aca601c83610967565b9150610ad582610a94565b601c82019050919050565b6000819050919050565b610afb610af682610306565b610ae0565b82525050565b6000610b0c82610abd565b9150610b188284610aea565b6020820191508190509291505056fea264697066735822122049483f87710b04e80cd9561597b438a019cb8819e8544742dbe0b2183991dbc664736f6c63430008140033","opcodes":"PUSH1 0x80 PUSH1 0x40 MSTORE CALLVALUE DUP1 ISZERO PUSH2 0x10 JUMPI PUSH1 0x0 DUP1 REVERT JUMPDEST POP PUSH2 0xB5D DUP1 PUSH2 0x20 PUSH1 0x0 CODECOPY PUSH1 0x0 RETURN INVALID PUSH1 0x80 PUSH1 0x40 MSTORE CALLVALUE DUP1 ISZERO PUSH2 0x10 JUMPI PUSH1 0x0 DUP1 REVERT JUMPDEST POP PUSH1 0x4 CALLDATASIZE LT PUSH2 0x57 JUMPI PUSH1 0x0 CALLDATALOAD PUSH1 0xE0 SHR DUP1 PUSH4 0x97ABA7F9 EQ PUSH2 0x5C JUMPI DUP1 PUSH4 0xA35F8A40 EQ PUSH2 0x8C JUMPI DUP1 PUSH4 0xA7BB5803 EQ PUSH2 0xBC JUMPI DUP1 PUSH4 0xABE5026A EQ PUSH2 0xEE JUMPI DUP1 PUSH4 0xFA540801 EQ PUSH2 0x11E JUMPI JUMPDEST PUSH1 0x0 DUP1 REVERT JUMPDEST PUSH2 0x76 PUSH1 0x4 DUP1 CALLDATASIZE SUB DUP2 ADD SWAP1 PUSH2 0x71 SWAP2 SWAP1 PUSH2 0x482 JUMP JUMPDEST PUSH2 0x14E JUMP JUMPDEST PUSH1 0x40 MLOAD PUSH2 0x83 SWAP2 SWAP1 PUSH2 0x51F JUMP JUMPDEST PUSH1 0x40 MLOAD DUP1 SWAP2 SUB SWAP1 RETURN JUMPDEST PUSH2 0xA6 PUSH1 0x4 DUP1 CALLDATASIZE SUB DUP2 ADD SWAP1 PUSH2 0xA1 SWAP2 SWAP1 PUSH2 0x63D JUMP JUMPDEST PUSH2 0x1BD JUMP JUMPDEST PUSH1 0x40 MLOAD PUSH2 0xB3 SWAP2 SWAP1 PUSH2 0x6CF JUMP JUMPDEST PUSH1 0x40 MLOAD DUP1 SWAP2 SUB SWAP1 RETURN JUMPDEST PUSH2 0xD6 PUSH1 0x4 DUP1 CALLDATASIZE SUB DUP2 ADD SWAP1 PUSH2 0xD1 SWAP2 SWAP1 PUSH2 0x6EA JUMP JUMPDEST PUSH2 0x1F6 JUMP JUMPDEST PUSH1 0x40 MLOAD PUSH2 0xE5 SWAP4 SWAP3 SWAP2 SWAP1 PUSH2 0x74F JUMP JUMPDEST PUSH1 0x40 MLOAD DUP1 SWAP2 SUB SWAP1 RETURN JUMPDEST PUSH2 0x108 PUSH1 0x4 DUP1 CALLDATASIZE SUB DUP2 ADD SWAP1 PUSH2 0x103 SWAP2 SWAP1 PUSH2 0x786 JUMP JUMPDEST PUSH2 0x25E JUMP JUMPDEST PUSH1 0x40 MLOAD PUSH2 0x115 SWAP2 SWAP1 PUSH2 0x866 JUMP JUMPDEST PUSH1 0x40 MLOAD DUP1 SWAP2 SUB SWAP1 RETURN JUMPDEST PUSH2 0x138 PUSH1 0x4 DUP1 CALLDATASIZE SUB DUP2 ADD SWAP1 PUSH2 0x133 SWAP2 SWAP1 PUSH2 0x881 JUMP JUMPDEST PUSH2 0x2C2 JUMP JUMPDEST PUSH1 0x40 MLOAD PUSH2 0x145 SWAP2 SWAP1 PUSH2 0x6CF JUMP JUMPDEST PUSH1 0x40 MLOAD DUP1 SWAP2 SUB SWAP1 RETURN JUMPDEST PUSH1 0x0 DUP1 PUSH1 0x0 DUP1 PUSH2 0x15D DUP6 PUSH2 0x1F6 JUMP JUMPDEST SWAP3 POP SWAP3 POP SWAP3 POP PUSH1 0x1 DUP7 DUP3 DUP6 DUP6 PUSH1 0x40 MLOAD PUSH1 0x0 DUP2 MSTORE PUSH1 0x20 ADD PUSH1 0x40 MSTORE PUSH1 0x40 MLOAD PUSH2 0x186 SWAP5 SWAP4 SWAP3 SWAP2 SWAP1 PUSH2 0x8AE JUMP JUMPDEST PUSH1 0x20 PUSH1 0x40 MLOAD PUSH1 0x20 DUP2 SUB SWAP1 DUP1 DUP5 SUB SWAP1 DUP6 GAS STATICCALL ISZERO DUP1 ISZERO PUSH2 0x1A8 JUMPI RETURNDATASIZE PUSH1 0x0 DUP1 RETURNDATACOPY RETURNDATASIZE PUSH1 0x0 REVERT JUMPDEST POP POP POP PUSH1 0x20 PUSH1 0x40 MLOAD SUB MLOAD SWAP4 POP POP POP POP SWAP3 SWAP2 POP POP JUMP JUMPDEST PUSH1 0x0 DUP5 DUP5 DUP5 DUP5 PUSH1 0x40 MLOAD PUSH1 0x20 ADD PUSH2 0x1D6 SWAP5 SWAP4 SWAP3 SWAP2 SWAP1 PUSH2 0x9CD JUMP JUMPDEST PUSH1 0x40 MLOAD PUSH1 0x20 DUP2 DUP4 SUB SUB DUP2 MSTORE SWAP1 PUSH1 0x40 MSTORE DUP1 MLOAD SWAP1 PUSH1 0x20 ADD KECCAK256 SWAP1 POP SWAP5 SWAP4 POP POP POP POP JUMP JUMPDEST PUSH1 0x0 DUP1 PUSH1 0x0 PUSH1 0x41 DUP5 MLOAD EQ PUSH2 0x23F JUMPI PUSH1 0x40 MLOAD PUSH32 0x8C379A000000000000000000000000000000000000000000000000000000000 DUP2 MSTORE PUSH1 0x4 ADD PUSH2 0x236 SWAP1 PUSH2 0xA74 JUMP JUMPDEST PUSH1 0x40 MLOAD DUP1 SWAP2 SUB SWAP1 REVERT JUMPDEST PUSH1 0x20 DUP5 ADD MLOAD SWAP3 POP PUSH1 0x40 DUP5 ADD MLOAD SWAP2 POP PUSH1 0x60 DUP5 ADD MLOAD PUSH1 0x0 BYTE SWAP1 POP SWAP2 SWAP4 SWAP1 SWAP3 POP JUMP JUMPDEST PUSH1 0x0 DUP1 PUSH2 0x26D DUP8 DUP8 DUP8 DUP8 PUSH2 0x1BD JUMP JUMPDEST SWAP1 POP PUSH1 0x0 PUSH2 0x27A DUP3 PUSH2 0x2C2 JUMP JUMPDEST SWAP1 POP DUP9 PUSH20 0xFFFFFFFFFFFFFFFFFFFFFFFFFFFFFFFFFFFFFFFF AND PUSH2 0x29D DUP3 DUP7 PUSH2 0x14E JUMP JUMPDEST PUSH20 0xFFFFFFFFFFFFFFFFFFFFFFFFFFFFFFFFFFFFFFFF AND EQ SWAP3 POP POP POP SWAP7 SWAP6 POP POP POP POP POP POP JUMP JUMPDEST PUSH1 0x0 DUP2 PUSH1 0x40 MLOAD PUSH1 0x20 ADD PUSH2 0x2D5 SWAP2 SWAP1 PUSH2 0xB01 JUMP JUMPDEST PUSH1 0x40 MLOAD PUSH1 0x20 DUP2 DUP4 SUB SUB DUP2 MSTORE SWAP1 PUSH1 0x40 MSTORE DUP1 MLOAD SWAP1 PUSH1 0x20 ADD KECCAK256 SWAP1 POP SWAP2 SWAP1 POP JUMP JUMPDEST PUSH1 0x0 PUSH1 0x40 MLOAD SWAP1 POP SWAP1 JUMP JUMPDEST PUSH1 0x0 DUP1 REVERT JUMPDEST PUSH1 0x0 DUP1 REVERT JUMPDEST PUSH1 0x0 DUP2 SWAP1 POP SWAP2 SWAP1 POP JUMP JUMPDEST PUSH2 0x319 DUP2 PUSH2 0x306 JUMP JUMPDEST DUP2 EQ PUSH2 0x324 JUMPI PUSH1 0x0 DUP1 REVERT JUMPDEST POP JUMP JUMPDEST PUSH1 0x0 DUP2 CALLDATALOAD SWAP1 POP PUSH2 0x336 DUP2 PUSH2 0x310 JUMP JUMPDEST SWAP3 SWAP2 POP POP JUMP JUMPDEST PUSH1 0x0 DUP1 REVERT JUMPDEST PUSH1 0x0 DUP1 REVERT JUMPDEST PUSH1 0x0 PUSH1 0x1F NOT PUSH1 0x1F DUP4 ADD AND SWAP1 POP SWAP2 SWAP1 POP JUMP JUMPDEST PUSH32 0x4E487B7100000000000000000000000000000000000000000000000000000000 PUSH1 0x0 MSTORE PUSH1 0x41 PUSH1 0x4 MSTORE PUSH1 0x24 PUSH1 0x0 REVERT JUMPDEST PUSH2 0x38F DUP3 PUSH2 0x346 JUMP JUMPDEST DUP2 ADD DUP2 DUP2 LT PUSH8 0xFFFFFFFFFFFFFFFF DUP3 GT OR ISZERO PUSH2 0x3AE JUMPI PUSH2 0x3AD PUSH2 0x357 JUMP JUMPDEST JUMPDEST DUP1 PUSH1 0x40 MSTORE POP POP POP JUMP JUMPDEST PUSH1 0x0 PUSH2 0x3C1 PUSH2 0x2F2 JUMP JUMPDEST SWAP1 POP PUSH2 0x3CD DUP3 DUP3 PUSH2 0x386 JUMP JUMPDEST SWAP2 SWAP1 POP JUMP JUMPDEST PUSH1 0x0 PUSH8 0xFFFFFFFFFFFFFFFF DUP3 GT ISZERO PUSH2 0x3ED JUMPI PUSH2 0x3EC PUSH2 0x357 JUMP JUMPDEST JUMPDEST PUSH2 0x3F6 DUP3 PUSH2 0x346 JUMP JUMPDEST SWAP1 POP PUSH1 0x20 DUP2 ADD SWAP1 POP SWAP2 SWAP1 POP JUMP JUMPDEST DUP3 DUP2 DUP4 CALLDATACOPY PUSH1 0x0 DUP4 DUP4 ADD MSTORE POP POP POP JUMP JUMPDEST PUSH1 0x0 PUSH2 0x425 PUSH2 0x420 DUP5 PUSH2 0x3D2 JUMP JUMPDEST PUSH2 0x3B7 JUMP JUMPDEST SWAP1 POP DUP3 DUP2 MSTORE PUSH1 0x20 DUP2 ADD DUP5 DUP5 DUP5 ADD GT ISZERO PUSH2 0x441 JUMPI PUSH2 0x440 PUSH2 0x341 JUMP JUMPDEST JUMPDEST PUSH2 0x44C DUP5 DUP3 DUP6 PUSH2 0x403 JUMP JUMPDEST POP SWAP4 SWAP3 POP POP POP JUMP JUMPDEST PUSH1 0x0 DUP3 PUSH1 0x1F DUP4 ADD SLT PUSH2 0x469 JUMPI PUSH2 0x468 PUSH2 0x33C JUMP JUMPDEST JUMPDEST DUP2 CALLDATALOAD PUSH2 0x479 DUP5 DUP3 PUSH1 0x20 DUP7 ADD PUSH2 0x412 JUMP JUMPDEST SWAP2 POP POP SWAP3 SWAP2 POP POP JUMP JUMPDEST PUSH1 0x0 DUP1 PUSH1 0x40 DUP4 DUP6 SUB SLT ISZERO PUSH2 0x499 JUMPI PUSH2 0x498 PUSH2 0x2FC JUMP JUMPDEST JUMPDEST PUSH1 0x0 PUSH2 0x4A7 DUP6 DUP3 DUP7 ADD PUSH2 0x327 JUMP JUMPDEST SWAP3 POP POP PUSH1 0x20 DUP4 ADD CALLDATALOAD PUSH8 0xFFFFFFFFFFFFFFFF DUP2 GT ISZERO PUSH2 0x4C8 JUMPI PUSH2 0x4C7 PUSH2 0x301 JUMP JUMPDEST JUMPDEST PUSH2 0x4D4 DUP6 DUP3 DUP7 ADD PUSH2 0x454 JUMP JUMPDEST SWAP2 POP POP SWAP3 POP SWAP3 SWAP1 POP JUMP JUMPDEST PUSH1 0x0 PUSH20 0xFFFFFFFFFFFFFFFFFFFFFFFFFFFFFFFFFFFFFFFF DUP3 AND SWAP1 POP SWAP2 SWAP1 POP JUMP JUMPDEST PUSH1 0x0 PUSH2 0x509 DUP3 PUSH2 0x4DE JUMP JUMPDEST SWAP1 POP SWAP2 SWAP1 POP JUMP JUMPDEST PUSH2 0x519 DUP2 PUSH2 0x4FE JUMP JUMPDEST DUP3 MSTORE POP POP JUMP JUMPDEST PUSH1 0x0 PUSH1 0x20 DUP3 ADD SWAP1 POP PUSH2 0x534 PUSH1 0x0 DUP4 ADD DUP5 PUSH2 0x510 JUMP JUMPDEST SWAP3 SWAP2 POP POP JUMP JUMPDEST PUSH2 0x543 DUP2 PUSH2 0x4FE JUMP JUMPDEST DUP2 EQ PUSH2 0x54E JUMPI PUSH1 0x0 DUP1 REVERT JUMPDEST POP JUMP JUMPDEST PUSH1 0x0 DUP2 CALLDATALOAD SWAP1 POP PUSH2 0x560 DUP2 PUSH2 0x53A JUMP JUMPDEST SWAP3 SWAP2 POP POP JUMP JUMPDEST PUSH1 0x0 DUP2 SWAP1 POP SWAP2 SWAP1 POP JUMP JUMPDEST PUSH2 0x579 DUP2 PUSH2 0x566 JUMP JUMPDEST DUP2 EQ PUSH2 0x584 JUMPI PUSH1 0x0 DUP1 REVERT JUMPDEST POP JUMP JUMPDEST PUSH1 0x0 DUP2 CALLDATALOAD SWAP1 POP PUSH2 0x596 DUP2 PUSH2 0x570 JUMP JUMPDEST SWAP3 SWAP2 POP POP JUMP JUMPDEST PUSH1 0x0 PUSH8 0xFFFFFFFFFFFFFFFF DUP3 GT ISZERO PUSH2 0x5B7 JUMPI PUSH2 0x5B6 PUSH2 0x357 JUMP JUMPDEST JUMPDEST PUSH2 0x5C0 DUP3 PUSH2 0x346 JUMP JUMPDEST SWAP1 POP PUSH1 0x20 DUP2 ADD SWAP1 POP SWAP2 SWAP1 POP JUMP JUMPDEST PUSH1 0x0 PUSH2 0x5E0 PUSH2 0x5DB DUP5 PUSH2 0x59C JUMP JUMPDEST PUSH2 0x3B7 JUMP JUMPDEST SWAP1 POP DUP3 DUP2 MSTORE PUSH1 0x20 DUP2 ADD DUP5 DUP5 DUP5 ADD GT ISZERO PUSH2 0x5FC JUMPI PUSH2 0x5FB PUSH2 0x341 JUMP JUMPDEST JUMPDEST PUSH2 0x607 DUP5 DUP3 DUP6 PUSH2 0x403 JUMP JUMPDEST POP SWAP4 SWAP3 POP POP POP JUMP JUMPDEST PUSH1 0x0 DUP3 PUSH1 0x1F DUP4 ADD SLT PUSH2 0x624 JUMPI PUSH2 0x623 PUSH2 0x33C JUMP JUMPDEST JUMPDEST DUP2 CALLDATALOAD PUSH2 0x634 DUP5 DUP3 PUSH1 0x20 DUP7 ADD PUSH2 0x5CD JUMP JUMPDEST SWAP2 POP POP SWAP3 SWAP2 POP POP JUMP JUMPDEST PUSH1 0x0 DUP1 PUSH1 0x0 DUP1 PUSH1 0x80 DUP6 DUP8 SUB SLT ISZERO PUSH2 0x657 JUMPI PUSH2 0x656 PUSH2 0x2FC JUMP JUMPDEST JUMPDEST PUSH1 0x0 PUSH2 0x665 DUP8 DUP3 DUP9 ADD PUSH2 0x551 JUMP JUMPDEST SWAP5 POP POP PUSH1 0x20 PUSH2 0x676 DUP8 DUP3 DUP9 ADD PUSH2 0x587 JUMP JUMPDEST SWAP4 POP POP PUSH1 0x40 DUP6 ADD CALLDATALOAD PUSH8 0xFFFFFFFFFFFFFFFF DUP2 GT ISZERO PUSH2 0x697 JUMPI PUSH2 0x696 PUSH2 0x301 JUMP JUMPDEST JUMPDEST PUSH2 0x6A3 DUP8 DUP3 DUP9 ADD PUSH2 0x60F JUMP JUMPDEST SWAP3 POP POP PUSH1 0x60 PUSH2 0x6B4 DUP8 DUP3 DUP9 ADD PUSH2 0x587 JUMP JUMPDEST SWAP2 POP POP SWAP3 SWAP6 SWAP2 SWAP5 POP SWAP3 POP JUMP JUMPDEST PUSH2 0x6C9 DUP2 PUSH2 0x306 JUMP JUMPDEST DUP3 MSTORE POP POP JUMP JUMPDEST PUSH1 0x0 PUSH1 0x20 DUP3 ADD SWAP1 POP PUSH2 0x6E4 PUSH1 0x0 DUP4 ADD DUP5 PUSH2 0x6C0 JUMP JUMPDEST SWAP3 SWAP2 POP POP JUMP JUMPDEST PUSH1 0x0 PUSH1 0x20 DUP3 DUP5 SUB SLT ISZERO PUSH2 0x700 JUMPI PUSH2 0x6FF PUSH2 0x2FC JUMP JUMPDEST JUMPDEST PUSH1 0x0 DUP3 ADD CALLDATALOAD PUSH8 0xFFFFFFFFFFFFFFFF DUP2 GT ISZERO PUSH2 0x71E JUMPI PUSH2 0x71D PUSH2 0x301 JUMP JUMPDEST JUMPDEST PUSH2 0x72A DUP5 DUP3 DUP6 ADD PUSH2 0x454 JUMP JUMPDEST SWAP2 POP POP SWAP3 SWAP2 POP POP JUMP JUMPDEST PUSH1 0x0 PUSH1 0xFF DUP3 AND SWAP1 POP SWAP2 SWAP1 POP JUMP JUMPDEST PUSH2 0x749 DUP2 PUSH2 0x733 JUMP JUMPDEST DUP3 MSTORE POP POP JUMP JUMPDEST PUSH1 0x0 PUSH1 0x60 DUP3 ADD SWAP1 POP PUSH2 0x764 PUSH1 0x0 DUP4 ADD DUP7 PUSH2 0x6C0 JUMP JUMPDEST PUSH2 0x771 PUSH1 0x20 DUP4 ADD DUP6 PUSH2 0x6C0 JUMP JUMPDEST PUSH2 0x77E PUSH1 0x40 DUP4 ADD DUP5 PUSH2 0x740 JUMP JUMPDEST SWAP5 SWAP4 POP POP POP POP JUMP JUMPDEST PUSH1 0x0 DUP1 PUSH1 0x0 DUP1 PUSH1 0x0 DUP1 PUSH1 0xC0 DUP8 DUP10 SUB SLT ISZERO PUSH2 0x7A3 JUMPI PUSH2 0x7A2 PUSH2 0x2FC JUMP JUMPDEST JUMPDEST PUSH1 0x0 PUSH2 0x7B1 DUP10 DUP3 DUP11 ADD PUSH2 0x551 JUMP JUMPDEST SWAP7 POP POP PUSH1 0x20 PUSH2 0x7C2 DUP10 DUP3 DUP11 ADD PUSH2 0x551 JUMP JUMPDEST SWAP6 POP POP PUSH1 0x40 PUSH2 0x7D3 DUP10 DUP3 DUP11 ADD PUSH2 0x587 JUMP JUMPDEST SWAP5 POP POP PUSH1 0x60 DUP8 ADD CALLDATALOAD PUSH8 0xFFFFFFFFFFFFFFFF DUP2 GT ISZERO PUSH2 0x7F4 JUMPI PUSH2 0x7F3 PUSH2 0x301 JUMP JUMPDEST JUMPDEST PUSH2 0x800 DUP10 DUP3 DUP11 ADD PUSH2 0x60F JUMP JUMPDEST SWAP4 POP POP PUSH1 0x80 PUSH2 0x811 DUP10 DUP3 DUP11 ADD PUSH2 0x587 JUMP JUMPDEST SWAP3 POP POP PUSH1 0xA0 DUP8 ADD CALLDATALOAD PUSH8 0xFFFFFFFFFFFFFFFF DUP2 GT ISZERO PUSH2 0x832 JUMPI PUSH2 0x831 PUSH2 0x301 JUMP JUMPDEST JUMPDEST PUSH2 0x83E DUP10 DUP3 DUP11 ADD PUSH2 0x454 JUMP JUMPDEST SWAP2 POP POP SWAP3 SWAP6 POP SWAP3 SWAP6 POP SWAP3 SWAP6 JUMP JUMPDEST PUSH1 0x0 DUP2 ISZERO ISZERO SWAP1 POP SWAP2 SWAP1 POP JUMP JUMPDEST PUSH2 0x860 DUP2 PUSH2 0x84B JUMP JUMPDEST DUP3 MSTORE POP POP JUMP JUMPDEST PUSH1 0x0 PUSH1 0x20 DUP3 ADD SWAP1 POP PUSH2 0x87B PUSH1 0x0 DUP4 ADD DUP5 PUSH2 0x857 JUMP JUMPDEST SWAP3 SWAP2 POP POP JUMP JUMPDEST PUSH1 0x0 PUSH1 0x20 DUP3 DUP5 SUB SLT ISZERO PUSH2 0x897 JUMPI PUSH2 0x896 PUSH2 0x2FC JUMP JUMPDEST JUMPDEST PUSH1 0x0 PUSH2 0x8A5 DUP5 DUP3 DUP6 ADD PUSH2 0x327 JUMP JUMPDEST SWAP2 POP POP SWAP3 SWAP2 POP POP JUMP JUMPDEST PUSH1 0x0 PUSH1 0x80 DUP3 ADD SWAP1 POP PUSH2 0x8C3 PUSH1 0x0 DUP4 ADD DUP8 PUSH2 0x6C0 JUMP JUMPDEST PUSH2 0x8D0 PUSH1 0x20 DUP4 ADD DUP7 PUSH2 0x740 JUMP JUMPDEST PUSH2 0x8DD PUSH1 0x40 DUP4 ADD DUP6 PUSH2 0x6C0 JUMP JUMPDEST PUSH2 0x8EA PUSH1 0x60 DUP4 ADD DUP5 PUSH2 0x6C0 JUMP JUMPDEST SWAP6 SWAP5 POP POP POP POP POP JUMP JUMPDEST PUSH1 0x0 DUP2 PUSH1 0x60 SHL SWAP1 POP SWAP2 SWAP1 POP JUMP JUMPDEST PUSH1 0x0 PUSH2 0x90B DUP3 PUSH2 0x8F3 JUMP JUMPDEST SWAP1 POP SWAP2 SWAP1 POP JUMP JUMPDEST PUSH1 0x0 PUSH2 0x91D DUP3 PUSH2 0x900 JUMP JUMPDEST SWAP1 POP SWAP2 SWAP1 POP JUMP JUMPDEST PUSH2 0x935 PUSH2 0x930 DUP3 PUSH2 0x4FE JUMP JUMPDEST PUSH2 0x912 JUMP JUMPDEST DUP3 MSTORE POP POP JUMP JUMPDEST PUSH1 0x0 DUP2 SWAP1 POP SWAP2 SWAP1 POP JUMP JUMPDEST PUSH2 0x956 PUSH2 0x951 DUP3 PUSH2 0x566 JUMP JUMPDEST PUSH2 0x93B JUMP JUMPDEST DUP3 MSTORE POP POP JUMP JUMPDEST PUSH1 0x0 DUP2 MLOAD SWAP1 POP SWAP2 SWAP1 POP JUMP JUMPDEST PUSH1 0x0 DUP2 SWAP1 POP SWAP3 SWAP2 POP POP JUMP JUMPDEST PUSH1 0x0 JUMPDEST DUP4 DUP2 LT ISZERO PUSH2 0x990 JUMPI DUP1 DUP3 ADD MLOAD DUP2 DUP5 ADD MSTORE PUSH1 0x20 DUP2 ADD SWAP1 POP PUSH2 0x975 JUMP JUMPDEST PUSH1 0x0 DUP5 DUP5 ADD MSTORE POP POP POP POP JUMP JUMPDEST PUSH1 0x0 PUSH2 0x9A7 DUP3 PUSH2 0x95C JUMP JUMPDEST PUSH2 0x9B1 DUP2 DUP6 PUSH2 0x967 JUMP JUMPDEST SWAP4 POP PUSH2 0x9C1 DUP2 DUP6 PUSH1 0x20 DUP7 ADD PUSH2 0x972 JUMP JUMPDEST DUP1 DUP5 ADD SWAP2 POP POP SWAP3 SWAP2 POP POP JUMP JUMPDEST PUSH1 0x0 PUSH2 0x9D9 DUP3 DUP8 PUSH2 0x924 JUMP JUMPDEST PUSH1 0x14 DUP3 ADD SWAP2 POP PUSH2 0x9E9 DUP3 DUP7 PUSH2 0x945 JUMP JUMPDEST PUSH1 0x20 DUP3 ADD SWAP2 POP PUSH2 0x9F9 DUP3 DUP6 PUSH2 0x99C JUMP JUMPDEST SWAP2 POP PUSH2 0xA05 DUP3 DUP5 PUSH2 0x945 JUMP JUMPDEST PUSH1 0x20 DUP3 ADD SWAP2 POP DUP2 SWAP1 POP SWAP6 SWAP5 POP POP POP POP POP JUMP JUMPDEST PUSH1 0x0 DUP3 DUP3 MSTORE PUSH1 0x20 DUP3 ADD SWAP1 POP SWAP3 SWAP2 POP POP JUMP JUMPDEST PUSH32 0x696E76616C6964207369676E6174757265206C656E6774680000000000000000 PUSH1 0x0 DUP3 ADD MSTORE POP JUMP JUMPDEST PUSH1 0x0 PUSH2 0xA5E PUSH1 0x18 DUP4 PUSH2 0xA17 JUMP JUMPDEST SWAP2 POP PUSH2 0xA69 DUP3 PUSH2 0xA28 JUMP JUMPDEST PUSH1 0x20 DUP3 ADD SWAP1 POP SWAP2 SWAP1 POP JUMP JUMPDEST PUSH1 0x0 PUSH1 0x20 DUP3 ADD SWAP1 POP DUP2 DUP2 SUB PUSH1 0x0 DUP4 ADD MSTORE PUSH2 0xA8D DUP2 PUSH2 0xA51 JUMP JUMPDEST SWAP1 POP SWAP2 SWAP1 POP JUMP JUMPDEST PUSH32 0x19457468657265756D205369676E6564204D6573736167653A0A333200000000 PUSH1 0x0 DUP3 ADD MSTORE POP JUMP JUMPDEST PUSH1 0x0 PUSH2 0xACA PUSH1 0x1C DUP4 PUSH2 0x967 JUMP JUMPDEST SWAP2 POP PUSH2 0xAD5 DUP3 PUSH2 0xA94 JUMP JUMPDEST PUSH1 0x1C DUP3 ADD SWAP1 POP SWAP2 SWAP1 POP JUMP JUMPDEST PUSH1 0x0 DUP2 SWAP1 POP SWAP2 SWAP1 POP JUMP JUMPDEST PUSH2 0xAFB PUSH2 0xAF6 DUP3 PUSH2 0x306 JUMP JUMPDEST PUSH2 0xAE0 JUMP JUMPDEST DUP3 MSTORE POP POP JUMP JUMPDEST PUSH1 0x0 PUSH2 0xB0C DUP3 PUSH2 0xABD JUMP JUMPDEST SWAP2 POP PUSH2 0xB18 DUP3 DUP5 PUSH2 0xAEA JUMP JUMPDEST PUSH1 0x20 DUP3 ADD SWAP2 POP DUP2 SWAP1 POP SWAP3 SWAP2 POP POP JUMP INVALID LOG2 PUSH5 0x6970667358 0x22 SLT KECCAK256 0x49 BASEFEE EXTCODEHASH DUP8 PUSH18 0xB04E80CD9561597B438A019CB8819E85447 TIMESTAMP 0xDB 0xE0 0xB2 XOR CODECOPY SWAP2 0xDB 0xC6 PUSH5 0x736F6C6343 STOP ADDMOD EQ STOP CALLER "},"methodIdentifiers":{"getEthSignedMessageHash(bytes32)":"fa540801","getMessageHash(address,uint256,string,uint256)":"a35f8a40","recoverSigner(bytes32,bytes)":"97aba7f9","splitSignature(bytes)":"a7bb5803","verify(address,address,uint256,string,uint256,bytes)":"abe5026a"}}}}}