{
  "_format": "hh-sol-artifact-1",
  "contractName": "M5_Custody",
  "sourceName": "contracts/M5_Custody.sol",
  "abi": [
    {
      "anonymous": false,
      "inputs": [
        {
          "indexed": true,
          "internalType": "address",
          "name": "user",
          "type": "address"
        },
        {
          "indexed": false,
          "internalType": "uint256",
          "name": "amount",
          "type": "uint256"
        }
      ],
      "name": "Deposited",
      "type": "event"
    },
    {
      "anonymous": false,
      "inputs": [
        {
          "indexed": true,
          "internalType": "address",
          "name": "user",
          "type": "address"
        },
        {
          "indexed": false,
          "internalType": "uint256",
          "name": "amount",
          "type": "uint256"
        }
      ],
      "name": "Withdrawn",
      "type": "event"
    },
    {
      "inputs": [],
      "name": "deposit",
      "outputs": [],
      "stateMutability": "payable",
      "type": "function"
    },
    {
      "inputs": [
        {
          "internalType": "address",
          "name": "",
          "type": "address"
        }
      ],
      "name": "deposits",
      "outputs": [
        {
          "internalType": "uint256",
          "name": "",
          "type": "uint256"
        }
      ],
      "stateMutability": "view",
      "type": "function"
    },
    {
      "inputs": [
        {
          "internalType": "uint256",
          "name": "amount",
          "type": "uint256"
        }
      ],
      "name": "withdraw",
      "outputs": [],
      "stateMutability": "nonpayable",
      "type": "function"
    }
  ],
  "bytecode": "0x608060405234801561001057600080fd5b5061053b806100206000396000f3fe6080604052600436106100345760003560e01c80632e1a7d4d14610039578063d0e30db014610062578063fc7e286d1461006c575b600080fd5b34801561004557600080fd5b50610060600480360381019061005b919061030f565b6100a9565b005b61006a610217565b005b34801561007857600080fd5b50610093600480360381019061008e919061039a565b6102bc565b6040516100a091906103d6565b60405180910390f35b806000803373ffffffffffffffffffffffffffffffffffffffff1673ffffffffffffffffffffffffffffffffffffffff16815260200190815260200160002054101561012a576040517f08c379a00000000000000000000000000000000000000000000000000000000081526004016101219061044e565b60405180910390fd5b806000803373ffffffffffffffffffffffffffffffffffffffff1673ffffffffffffffffffffffffffffffffffffffff1681526020019081526020016000206000828254610178919061049d565b925050819055503373ffffffffffffffffffffffffffffffffffffffff166108fc829081150290604051600060405180830381858888f193505050501580156101c5573d6000803e3d6000fd5b503373ffffffffffffffffffffffffffffffffffffffff167f7084f5476618d8e60b11ef0d7d3f06914655adb8793e28ff7f018d4c76d505d58260405161020c91906103d6565b60405180910390a250565b346000803373ffffffffffffffffffffffffffffffffffffffff1673ffffffffffffffffffffffffffffffffffffffff168152602001908152602001600020600082825461026591906104d1565b925050819055503373ffffffffffffffffffffffffffffffffffffffff167f2da466a7b24304f47e87fa2e1e5a81b9831ce54fec19055ce277ca2f39ba42c4346040516102b291906103d6565b60405180910390a2565b60006020528060005260406000206000915090505481565b600080fd5b6000819050919050565b6102ec816102d9565b81146102f757600080fd5b50565b600081359050610309816102e3565b92915050565b600060208284031215610325576103246102d4565b5b6000610333848285016102fa565b91505092915050565b600073ffffffffffffffffffffffffffffffffffffffff82169050919050565b60006103678261033c565b9050919050565b6103778161035c565b811461038257600080fd5b50565b6000813590506103948161036e565b92915050565b6000602082840312156103b0576103af6102d4565b5b60006103be84828501610385565b91505092915050565b6103d0816102d9565b82525050565b60006020820190506103eb60008301846103c7565b92915050565b600082825260208201905092915050565b7f496e73756666696369656e74206465706f736974000000000000000000000000600082015250565b60006104386014836103f1565b915061044382610402565b602082019050919050565b600060208201905081810360008301526104678161042b565b9050919050565b7f4e487b7100000000000000000000000000000000000000000000000000000000600052601160045260246000fd5b60006104a8826102d9565b91506104b3836102d9565b92508282039050818111156104cb576104ca61046e565b5b92915050565b60006104dc826102d9565b91506104e7836102d9565b92508282019050808211156104ff576104fe61046e565b5b9291505056fea2646970667358221220909c2f892ed8e4e2e6867e099d41a49e46db698d8fb6185e39b3b79ec243f85564736f6c63430008140033",
  "linkReferences": {},
  "deployedLinkReferences": {}
}