{
  "_format": "hh-sol-artifact-1",
  "contractName": "M6_Tokens",
  "sourceName": "contracts/M6_Tokens.sol",
  "abi": [
    {
      "inputs": [
        {
          "internalType": "address",
          "name": "",
          "type": "address"
        }
      ],
      "name": "balances",
      "outputs": [
        {
          "internalType": "uint256",
          "name": "",
          "type": "uint256"
        }
      ],
      "stateMutability": "view",
      "type": "function"
    },
    {
      "inputs": [
        {
          "internalType": "address",
          "name": "token",
          "type": "address"
        },
        {
          "internalType": "address",
          "name": "to",
          "type": "address"
        },
        {
          "internalType": "uint256",
          "name": "amount",
          "type": "uint256"
        }
      ],
      "name": "sendToken",
      "outputs": [],
      "stateMutability": "nonpayable",
      "type": "function"
    }
  ],
  "bytecode": "0x608060405234801561001057600080fd5b50610339806100206000396000f3fe608060405234801561001057600080fd5b50600436106100365760003560e01c806327e235e31461003b5780632fdcfbd21461006b575b600080fd5b61005560048036038101906100509190610186565b610087565b60405161006291906101cc565b60405180910390f35b61008560048036038101906100809190610213565b61009f565b005b60006020528060005260406000206000915090505481565b8273ffffffffffffffffffffffffffffffffffffffff1663a9059cbb83836040518363ffffffff1660e01b81526004016100da929190610275565b6020604051808303816000875af11580156100f9573d6000803e3d6000fd5b505050506040513d601f19601f8201168201806040525081019061011d91906102d6565b50505050565b600080fd5b600073ffffffffffffffffffffffffffffffffffffffff82169050919050565b600061015382610128565b9050919050565b61016381610148565b811461016e57600080fd5b50565b6000813590506101808161015a565b92915050565b60006020828403121561019c5761019b610123565b5b60006101aa84828501610171565b91505092915050565b6000819050919050565b6101c6816101b3565b82525050565b60006020820190506101e160008301846101bd565b92915050565b6101f0816101b3565b81146101fb57600080fd5b50565b60008135905061020d816101e7565b92915050565b60008060006060848603121561022c5761022b610123565b5b600061023a86828701610171565b935050602061024b86828701610171565b925050604061025c868287016101fe565b9150509250925092565b61026f81610148565b82525050565b600060408201905061028a6000830185610266565b61029760208301846101bd565b9392505050565b60008115159050919050565b6102b38161029e565b81146102be57600080fd5b50565b6000815190506102d0816102aa565b92915050565b6000602082840312156102ec576102eb610123565b5b60006102fa848285016102c1565b9150509291505056fea26469706673582212208300e9e19202927f44c1208ee73fb94100ca984e7c99b69fc75204d16ac0197764736f6c63430008140033",
  "linkReferences": {},
  "deployedLinkReferences": {}
}