{
  "_format": "hh-sol-artifact-1",
  "contractName": "Custody",
  "sourceName": "contracts/Custody.sol",
  "abi": [
    {
      "inputs": [
        {
          "internalType": "address",
          "name": "_ledgerAddress",
          "type": "address"
        }
      ],
      "stateMutability": "nonpayable",
      "type": "constructor"
    },
    {
      "anonymous": false,
      "inputs": [
        {
          "indexed": true,
          "internalType": "address",
          "name": "sender",
          "type": "address"
        },
        {
          "indexed": false,
          "internalType": "uint256",
          "name": "amount",
          "type": "uint256"
        }
      ],
      "name": "Deposited",
      "type": "event"
    },
    {
      "anonymous": false,
      "inputs": [
        {
          "indexed": true,
          "internalType": "address",
          "name": "recipient",
          "type": "address"
        },
        {
          "indexed": false,
          "internalType": "uint256",
          "name": "amount",
          "type": "uint256"
        }
      ],
      "name": "Withdrawn",
      "type": "event"
    },
    {
      "inputs": [],
      "name": "getBalance",
      "outputs": [
        {
          "internalType": "uint256",
          "name": "",
          "type": "uint256"
        }
      ],
      "stateMutability": "view",
      "type": "function"
    },
    {
      "inputs": [],
      "name": "ledger",
      "outputs": [
        {
          "internalType": "contract AccountLedger",
          "name": "",
          "type": "address"
        }
      ],
      "stateMutability": "view",
      "type": "function"
    },
    {
      "inputs": [],
      "name": "owner",
      "outputs": [
        {
          "internalType": "address",
          "name": "",
          "type": "address"
        }
      ],
      "stateMutability": "view",
      "type": "function"
    },
    {
      "inputs": [
        {
          "internalType": "address payable",
          "name": "to",
          "type": "address"
        },
        {
          "internalType": "uint256",
          "name": "amount",
          "type": "uint256"
        }
      ],
      "name": "withdraw",
      "outputs": [],
      "stateMutability": "nonpayable",
      "type": "function"
    },
    {
      "stateMutability": "payable",
      "type": "receive"
    }
  ],
  "bytecode": "0x608060405234801561001057600080fd5b506040516109fe3803806109fe8339818101604052810190610032919061011c565b336000806101000a81548173ffffffffffffffffffffffffffffffffffffffff021916908373ffffffffffffffffffffffffffffffffffffffff16021790555080600160006101000a81548173ffffffffffffffffffffffffffffffffffffffff021916908373ffffffffffffffffffffffffffffffffffffffff16021790555050610149565b600080fd5b600073ffffffffffffffffffffffffffffffffffffffff82169050919050565b60006100e9826100be565b9050919050565b6100f9816100de565b811461010457600080fd5b50565b600081519050610116816100f0565b92915050565b600060208284031215610132576101316100b9565b5b600061014084828501610107565b91505092915050565b6108a6806101586000396000f3fe6080604052600436106100435760003560e01c806312065fe01461016f57806356397c351461019a5780638da5cb5b146101c5578063f3fef3a3146101f05761016a565b3661016a576000341161008b576040517f08c379a0000000000000000000000000000000000000000000000000000000008152600401610082906104c1565b60405180910390fd5b600160009054906101000a900473ffffffffffffffffffffffffffffffffffffffff1673ffffffffffffffffffffffffffffffffffffffff1663f50af16333346040518363ffffffff1660e01b81526004016100e8929190610587565b600060405180830381600087803b15801561010257600080fd5b505af1158015610116573d6000803e3d6000fd5b505050503373ffffffffffffffffffffffffffffffffffffffff167f2da466a7b24304f47e87fa2e1e5a81b9831ce54fec19055ce277ca2f39ba42c43460405161016091906105dc565b60405180910390a2005b600080fd5b34801561017b57600080fd5b50610184610219565b60405161019191906105dc565b60405180910390f35b3480156101a657600080fd5b506101af610221565b6040516101bc9190610656565b60405180910390f35b3480156101d157600080fd5b506101da610247565b6040516101e79190610671565b60405180910390f35b3480156101fc57600080fd5b50610217600480360381019061021291906106fb565b61026b565b005b600047905090565b600160009054906101000a900473ffffffffffffffffffffffffffffffffffffffff1681565b60008054906101000a900473ffffffffffffffffffffffffffffffffffffffff1681565b60008054906101000a900473ffffffffffffffffffffffffffffffffffffffff1673ffffffffffffffffffffffffffffffffffffffff163373ffffffffffffffffffffffffffffffffffffffff16146102f9576040517f08c379a00000000000000000000000000000000000000000000000000000000081526004016102f090610787565b60405180910390fd5b8047101561033c576040517f08c379a0000000000000000000000000000000000000000000000000000000008152600401610333906107f3565b60405180910390fd5b600160009054906101000a900473ffffffffffffffffffffffffffffffffffffffff1673ffffffffffffffffffffffffffffffffffffffff166383efe25c83836040518363ffffffff1660e01b8152600401610399929190610834565b600060405180830381600087803b1580156103b357600080fd5b505af11580156103c7573d6000803e3d6000fd5b505050508173ffffffffffffffffffffffffffffffffffffffff166108fc829081150290604051600060405180830381858888f19350505050158015610411573d6000803e3d6000fd5b508173ffffffffffffffffffffffffffffffffffffffff167f7084f5476618d8e60b11ef0d7d3f06914655adb8793e28ff7f018d4c76d505d58260405161045891906105dc565b60405180910390a25050565b600082825260208201905092915050565b7f4e6164612061206465706f736974617200000000000000000000000000000000600082015250565b60006104ab601083610464565b91506104b682610475565b602082019050919050565b600060208201905081810360008301526104da8161049e565b9050919050565b600073ffffffffffffffffffffffffffffffffffffffff82169050919050565b600061050c826104e1565b9050919050565b61051c81610501565b82525050565b7f6574680000000000000000000000000000000000000000000000000000000000600082015250565b6000610558600383610464565b915061056382610522565b602082019050919050565b6000819050919050565b6105818161056e565b82525050565b600060608201905061059c6000830185610513565b81810360208301526105ad8161054b565b90506105bc6040830184610578565b9392505050565b6000819050919050565b6105d6816105c3565b82525050565b60006020820190506105f160008301846105cd565b92915050565b6000819050919050565b600061061c610617610612846104e1565b6105f7565b6104e1565b9050919050565b600061062e82610601565b9050919050565b600061064082610623565b9050919050565b61065081610635565b82525050565b600060208201905061066b6000830184610647565b92915050565b60006020820190506106866000830184610513565b92915050565b600080fd5b600061069c826104e1565b9050919050565b6106ac81610691565b81146106b757600080fd5b50565b6000813590506106c9816106a3565b92915050565b6106d8816105c3565b81146106e357600080fd5b50565b6000813590506106f5816106cf565b92915050565b600080604083850312156107125761071161068c565b5b6000610720858286016106ba565b9250506020610731858286016106e6565b9150509250929050565b7f4e6f7420617574686f72697a6564000000000000000000000000000000000000600082015250565b6000610771600e83610464565b915061077c8261073b565b602082019050919050565b600060208201905081810360008301526107a081610764565b9050919050565b7f53616c646f20696e737566696369656e74650000000000000000000000000000600082015250565b60006107dd601283610464565b91506107e8826107a7565b602082019050919050565b6000602082019050818103600083015261080c816107d0565b9050919050565b600061081e82610623565b9050919050565b61082e81610813565b82525050565b60006060820190506108496000830185610825565b818103602083015261085a8161054b565b90506108696040830184610578565b939250505056fea2646970667358221220ffcdd80817b17ed8ecc76e659b6ec38b391b6edc29970137fc4d8c7c523af55c64736f6c63430008140033",
  "linkReferences": {},
  "deployedLinkReferences": {}
}