{
  "_format": "hh-sol-artifact-1",
  "contractName": "M1_ECDSA",
  "sourceName": "contracts/M1_ECDSA.sol",
  "abi": [
    {
      "inputs": [
        {
          "internalType": "bytes32",
          "name": "messageHash",
          "type": "bytes32"
        },
        {
          "internalType": "bytes",
          "name": "signature",
          "type": "bytes"
        }
      ],
      "name": "recoverSigner",
      "outputs": [
        {
          "internalType": "address",
          "name": "",
          "type": "address"
        }
      ],
      "stateMutability": "pure",
      "type": "function"
    },
    {
      "inputs": [
        {
          "internalType": "bytes",
          "name": "sig",
          "type": "bytes"
        }
      ],
      "name": "splitSignature",
      "outputs": [
        {
          "internalType": "bytes32",
          "name": "r",
          "type": "bytes32"
        },
        {
          "internalType": "bytes32",
          "name": "s",
          "type": "bytes32"
        },
        {
          "internalType": "uint8",
          "name": "v",
          "type": "uint8"
        }
      ],
      "stateMutability": "pure",
      "type": "function"
    },
    {
      "inputs": [
        {
          "internalType": "address",
          "name": "signer",
          "type": "address"
        },
        {
          "internalType": "bytes32",
          "name": "messageHash",
          "type": "bytes32"
        },
        {
          "internalType": "bytes",
          "name": "signature",
          "type": "bytes"
        }
      ],
      "name": "verifySignature",
      "outputs": [
        {
          "internalType": "bool",
          "name": "",
          "type": "bool"
        }
      ],
      "stateMutability": "pure",
      "type": "function"
    }
  ],
  "bytecode": "0x6106d6610053600b82828239805160001a607314610046577f4e487b7100000000000000000000000000000000000000000000000000000000600052600060045260246000fd5b30600052607381538281f3fe730000000000000000000000000000000000000000301460806040526004361061004b5760003560e01c8063017519981461005057806397aba7f914610080578063a7bb5803146100b0575b600080fd5b61006a600480360381019061006591906103ea565b6100e2565b6040516100779190610474565b60405180910390f35b61009a6004803603810190610095919061048f565b610125565b6040516100a791906104fa565b60405180910390f35b6100ca60048036038101906100c59190610515565b610194565b6040516100d993929190610589565b60405180910390f35b60008373ffffffffffffffffffffffffffffffffffffffff166101058484610125565b73ffffffffffffffffffffffffffffffffffffffff161490509392505050565b60008060008061013485610194565b9250925092506001868285856040516000815260200160405260405161015d94939291906105de565b6020604051602081039080840390855afa15801561017f573d6000803e3d6000fd5b50505060206040510351935050505092915050565b600080600060418451146101dd576040517f08c379a00000000000000000000000000000000000000000000000000000000081526004016101d490610680565b60405180910390fd5b6020840151925060408401519150606084015160001a90509193909250565b6000604051905090565b600080fd5b600080fd5b600073ffffffffffffffffffffffffffffffffffffffff82169050919050565b600061023b82610210565b9050919050565b61024b81610230565b811461025657600080fd5b50565b60008135905061026881610242565b92915050565b6000819050919050565b6102818161026e565b811461028c57600080fd5b50565b60008135905061029e81610278565b92915050565b600080fd5b600080fd5b6000601f19601f8301169050919050565b7f4e487b7100000000000000000000000000000000000000000000000000000000600052604160045260246000fd5b6102f7826102ae565b810181811067ffffffffffffffff82111715610316576103156102bf565b5b80604052505050565b60006103296101fc565b905061033582826102ee565b919050565b600067ffffffffffffffff821115610355576103546102bf565b5b61035e826102ae565b9050602081019050919050565b82818337600083830152505050565b600061038d6103888461033a565b61031f565b9050828152602081018484840111156103a9576103a86102a9565b5b6103b484828561036b565b509392505050565b600082601f8301126103d1576103d06102a4565b5b81356103e184826020860161037a565b91505092915050565b60008060006060848603121561040357610402610206565b5b600061041186828701610259565b93505060206104228682870161028f565b925050604084013567ffffffffffffffff8111156104435761044261020b565b5b61044f868287016103bc565b9150509250925092565b60008115159050919050565b61046e81610459565b82525050565b60006020820190506104896000830184610465565b92915050565b600080604083850312156104a6576104a5610206565b5b60006104b48582860161028f565b925050602083013567ffffffffffffffff8111156104d5576104d461020b565b5b6104e1858286016103bc565b9150509250929050565b6104f481610230565b82525050565b600060208201905061050f60008301846104eb565b92915050565b60006020828403121561052b5761052a610206565b5b600082013567ffffffffffffffff8111156105495761054861020b565b5b610555848285016103bc565b91505092915050565b6105678161026e565b82525050565b600060ff82169050919050565b6105838161056d565b82525050565b600060608201905061059e600083018661055e565b6105ab602083018561055e565b6105b8604083018461057a565b949350505050565b6105c98161026e565b82525050565b6105d88161056d565b82525050565b60006080820190506105f360008301876105c0565b61060060208301866105cf565b61060d60408301856105c0565b61061a60608301846105c0565b95945050505050565b600082825260208201905092915050565b7f696e76616c6964207369676e6174757265206c656e6774680000000000000000600082015250565b600061066a601883610623565b915061067582610634565b602082019050919050565b600060208201905081810360008301526106998161065d565b905091905056fea2646970667358221220b3bd24c00999c866b8bb4bc87c80036b395c0dc3deefa5d3b0ca198d8914c68664736f6c63430008140033",
  "linkReferences": {},
  "deployedLinkReferences": {}
}