{
  "_format": "hh-sol-artifact-1",
  "contractName": "ProofOfWork",
  "sourceName": "contracts/ProofOfWork.sol",
  "abi": [
    {
      "inputs": [],
      "stateMutability": "nonpayable",
      "type": "constructor"
    },
    {
      "inputs": [],
      "name": "difficulty",
      "outputs": [
        {
          "internalType": "uint256",
          "name": "",
          "type": "uint256"
        }
      ],
      "stateMutability": "view",
      "type": "function"
    },
    {
      "inputs": [],
      "name": "lastHash",
      "outputs": [
        {
          "internalType": "bytes32",
          "name": "",
          "type": "bytes32"
        }
      ],
      "stateMutability": "view",
      "type": "function"
    },
    {
      "inputs": [
        {
          "internalType": "string",
          "name": "nonce",
          "type": "string"
        }
      ],
      "name": "mine",
      "outputs": [
        {
          "internalType": "bool",
          "name": "",
          "type": "bool"
        }
      ],
      "stateMutability": "nonpayable",
      "type": "function"
    }
  ],
  "bytecode": "0x6080604052600260015534801561001557600080fd5b506040516020016100259061009d565b604051602081830303815290604052805190602001206000819055506100b2565b600081905092915050565b7f47656e6573697300000000000000000000000000000000000000000000000000600082015250565b6000610087600783610046565b915061009282610051565b600782019050919050565b60006100a88261007a565b9150819050919050565b610798806100c16000396000f3fe608060405234801561001057600080fd5b50600436106100415760003560e01c806319cae462146100465780633fa2180614610064578063841819df14610082575b600080fd5b61004e6100b2565b60405161005b91906101ae565b60405180910390f35b61006c6100b8565b60405161007991906101e2565b60405180910390f35b61009c60048036038101906100979190610357565b6100be565b6040516100a991906103bb565b60405180910390f35b60015481565b60005481565b600080600054836040516020016100d6929190610468565b60405160208183030381529060405280519060200120905060015460026100fd91906105f2565b7fffffffffffffffffffffffffffffffffffffffffffffffffffffffffffffffff610128919061066c565b8160001c1061016c576040517f08c379a0000000000000000000000000000000000000000000000000000000008152600401610163906106fa565b60405180910390fd5b80600081905550600160008154809291906101869061071a565b91905055506001915050919050565b6000819050919050565b6101a881610195565b82525050565b60006020820190506101c3600083018461019f565b92915050565b6000819050919050565b6101dc816101c9565b82525050565b60006020820190506101f760008301846101d3565b92915050565b6000604051905090565b600080fd5b600080fd5b600080fd5b600080fd5b6000601f19601f8301169050919050565b7f4e487b7100000000000000000000000000000000000000000000000000000000600052604160045260246000fd5b6102648261021b565b810181811067ffffffffffffffff821117156102835761028261022c565b5b80604052505050565b60006102966101fd565b90506102a2828261025b565b919050565b600067ffffffffffffffff8211156102c2576102c161022c565b5b6102cb8261021b565b9050602081019050919050565b82818337600083830152505050565b60006102fa6102f5846102a7565b61028c565b90508281526020810184848401111561031657610315610216565b5b6103218482856102d8565b509392505050565b600082601f83011261033e5761033d610211565b5b813561034e8482602086016102e7565b91505092915050565b60006020828403121561036d5761036c610207565b5b600082013567ffffffffffffffff81111561038b5761038a61020c565b5b61039784828501610329565b91505092915050565b60008115159050919050565b6103b5816103a0565b82525050565b60006020820190506103d060008301846103ac565b92915050565b6000819050919050565b6103f16103ec826101c9565b6103d6565b82525050565b600081519050919050565b600081905092915050565b60005b8381101561042b578082015181840152602081019050610410565b60008484015250505050565b6000610442826103f7565b61044c8185610402565b935061045c81856020860161040d565b80840191505092915050565b600061047482856103e0565b6020820191506104848284610437565b91508190509392505050565b7f4e487b7100000000000000000000000000000000000000000000000000000000600052601160045260246000fd5b60008160011c9050919050565b6000808291508390505b6001851115610516578086048111156104f2576104f1610490565b5b60018516156105015780820291505b808102905061050f856104bf565b94506104d6565b94509492505050565b60008261052f57600190506105eb565b8161053d57600090506105eb565b8160018114610553576002811461055d5761058c565b60019150506105eb565b60ff84111561056f5761056e610490565b5b8360020a91508482111561058657610585610490565b5b506105eb565b5060208310610133831016604e8410600b84101617156105c15782820a9050838111156105bc576105bb610490565b5b6105eb565b6105ce84848460016104cc565b925090508184048111156105e5576105e4610490565b5b81810290505b9392505050565b60006105fd82610195565b915061060883610195565b92506106357fffffffffffffffffffffffffffffffffffffffffffffffffffffffffffffffff848461051f565b905092915050565b7f4e487b7100000000000000000000000000000000000000000000000000000000600052601260045260246000fd5b600061067782610195565b915061068283610195565b9250826106925761069161063d565b5b828204905092915050565b600082825260208201905092915050565b7f496e76616c69642070726f6f66206f6620776f726b0000000000000000000000600082015250565b60006106e460158361069d565b91506106ef826106ae565b602082019050919050565b60006020820190508181036000830152610713816106d7565b9050919050565b600061072582610195565b91507fffffffffffffffffffffffffffffffffffffffffffffffffffffffffffffffff820361075757610756610490565b5b60018201905091905056fea26469706673582212202f56c7c1df0f9f41c0b8536d7e7bec492be78da600d9d3d2bf0249dd69a89ae764736f6c63430008140033",
  "linkReferences": {},
  "deployedLinkReferences": {}
}