{
  "_format": "hh-sol-artifact-1",
  "contractName": "M2_UTXO_Account",
  "sourceName": "contracts/M2_UTXO_Account.sol",
  "abi": [
    {
      "inputs": [
        {
          "internalType": "address",
          "name": "",
          "type": "address"
        }
      ],
      "name": "balances",
      "outputs": [
        {
          "internalType": "uint256",
          "name": "",
          "type": "uint256"
        }
      ],
      "stateMutability": "view",
      "type": "function"
    },
    {
      "inputs": [
        {
          "internalType": "bytes32",
          "name": "id",
          "type": "bytes32"
        },
        {
          "internalType": "address",
          "name": "owner",
          "type": "address"
        },
        {
          "internalType": "uint256",
          "name": "amount",
          "type": "uint256"
        }
      ],
      "name": "createUTXO",
      "outputs": [],
      "stateMutability": "nonpayable",
      "type": "function"
    },
    {
      "inputs": [
        {
          "internalType": "address",
          "name": "to",
          "type": "address"
        },
        {
          "internalType": "uint256",
          "name": "amount",
          "type": "uint256"
        }
      ],
      "name": "transferAccount",
      "outputs": [],
      "stateMutability": "nonpayable",
      "type": "function"
    },
    {
      "inputs": [
        {
          "internalType": "bytes32",
          "name": "",
          "type": "bytes32"
        }
      ],
      "name": "utxos",
      "outputs": [
        {
          "internalType": "address",
          "name": "owner",
          "type": "address"
        },
        {
          "internalType": "uint256",
          "name": "amount",
          "type": "uint256"
        }
      ],
      "stateMutability": "view",
      "type": "function"
    }
  ],
  "bytecode": "0x608060405234801561001057600080fd5b50610676806100206000396000f3fe608060405234801561001057600080fd5b506004361061004c5760003560e01c806327e235e3146100515780633cf18ab91461008157806391691873146100b2578063ae102b24146100ce575b600080fd5b61006b60048036038101906100669190610371565b6100ea565b60405161007891906103b7565b60405180910390f35b61009b60048036038101906100969190610408565b610102565b6040516100a9929190610444565b60405180910390f35b6100cc60048036038101906100c79190610499565b610146565b005b6100e860048036038101906100e391906104d9565b610278565b005b60016020528060005260406000206000915090505481565b60006020528060005260406000206000915090508060000160009054906101000a900473ffffffffffffffffffffffffffffffffffffffff16908060010154905082565b80600160003373ffffffffffffffffffffffffffffffffffffffff1673ffffffffffffffffffffffffffffffffffffffff1681526020019081526020016000205410156101c8576040517f08c379a00000000000000000000000000000000000000000000000000000000081526004016101bf90610589565b60405180910390fd5b80600160003373ffffffffffffffffffffffffffffffffffffffff1673ffffffffffffffffffffffffffffffffffffffff168152602001908152602001600020600082825461021791906105d8565b9250508190555080600160008473ffffffffffffffffffffffffffffffffffffffff1673ffffffffffffffffffffffffffffffffffffffff168152602001908152602001600020600082825461026d919061060c565b925050819055505050565b60405180604001604052808373ffffffffffffffffffffffffffffffffffffffff1681526020018281525060008085815260200190815260200160002060008201518160000160006101000a81548173ffffffffffffffffffffffffffffffffffffffff021916908373ffffffffffffffffffffffffffffffffffffffff16021790555060208201518160010155905050505050565b600080fd5b600073ffffffffffffffffffffffffffffffffffffffff82169050919050565b600061033e82610313565b9050919050565b61034e81610333565b811461035957600080fd5b50565b60008135905061036b81610345565b92915050565b6000602082840312156103875761038661030e565b5b60006103958482850161035c565b91505092915050565b6000819050919050565b6103b18161039e565b82525050565b60006020820190506103cc60008301846103a8565b92915050565b6000819050919050565b6103e5816103d2565b81146103f057600080fd5b50565b600081359050610402816103dc565b92915050565b60006020828403121561041e5761041d61030e565b5b600061042c848285016103f3565b91505092915050565b61043e81610333565b82525050565b60006040820190506104596000830185610435565b61046660208301846103a8565b9392505050565b6104768161039e565b811461048157600080fd5b50565b6000813590506104938161046d565b92915050565b600080604083850312156104b0576104af61030e565b5b60006104be8582860161035c565b92505060206104cf85828601610484565b9150509250929050565b6000806000606084860312156104f2576104f161030e565b5b6000610500868287016103f3565b93505060206105118682870161035c565b925050604061052286828701610484565b9150509250925092565b600082825260208201905092915050565b7f496e73756666696369656e742062616c616e6365000000000000000000000000600082015250565b600061057360148361052c565b915061057e8261053d565b602082019050919050565b600060208201905081810360008301526105a281610566565b9050919050565b7f4e487b7100000000000000000000000000000000000000000000000000000000600052601160045260246000fd5b60006105e38261039e565b91506105ee8361039e565b9250828203905081811115610606576106056105a9565b5b92915050565b60006106178261039e565b91506106228361039e565b925082820190508082111561063a576106396105a9565b5b9291505056fea2646970667358221220c90ad40ac9fa7cba18acc37b8bf240893004d8893a7bdb76e0601be4d8a0625464736f6c63430008140033",
  "linkReferences": {},
  "deployedLinkReferences": {}
}