{
  "_format": "hh-sol-artifact-1",
  "contractName": "AccountLedger",
  "sourceName": "contracts/AccountLedger.sol",
  "abi": [
    {
      "inputs": [],
      "stateMutability": "nonpayable",
      "type": "constructor"
    },
    {
      "anonymous": false,
      "inputs": [
        {
          "indexed": true,
          "internalType": "address",
          "name": "account",
          "type": "address"
        },
        {
          "indexed": true,
          "internalType": "string",
          "name": "balanceType",
          "type": "string"
        },
        {
          "indexed": false,
          "internalType": "int256",
          "name": "amount",
          "type": "int256"
        }
      ],
      "name": "BalanceCredited",
      "type": "event"
    },
    {
      "anonymous": false,
      "inputs": [
        {
          "indexed": true,
          "internalType": "address",
          "name": "account",
          "type": "address"
        },
        {
          "indexed": true,
          "internalType": "string",
          "name": "balanceType",
          "type": "string"
        },
        {
          "indexed": false,
          "internalType": "int256",
          "name": "amount",
          "type": "int256"
        }
      ],
      "name": "BalanceDebited",
      "type": "event"
    },
    {
      "inputs": [
        {
          "internalType": "address",
          "name": "account",
          "type": "address"
        },
        {
          "internalType": "string",
          "name": "balanceType",
          "type": "string"
        },
        {
          "internalType": "int256",
          "name": "amount",
          "type": "int256"
        }
      ],
      "name": "credit",
      "outputs": [],
      "stateMutability": "nonpayable",
      "type": "function"
    },
    {
      "inputs": [
        {
          "internalType": "address",
          "name": "account",
          "type": "address"
        },
        {
          "internalType": "string",
          "name": "balanceType",
          "type": "string"
        },
        {
          "internalType": "int256",
          "name": "amount",
          "type": "int256"
        }
      ],
      "name": "debit",
      "outputs": [],
      "stateMutability": "nonpayable",
      "type": "function"
    },
    {
      "inputs": [
        {
          "internalType": "address",
          "name": "account",
          "type": "address"
        },
        {
          "internalType": "string",
          "name": "balanceType",
          "type": "string"
        }
      ],
      "name": "getBalance",
      "outputs": [
        {
          "internalType": "int256",
          "name": "",
          "type": "int256"
        }
      ],
      "stateMutability": "view",
      "type": "function"
    },
    {
      "inputs": [
        {
          "internalType": "address",
          "name": "newCaller",
          "type": "address"
        }
      ],
      "name": "setTrustedCaller",
      "outputs": [],
      "stateMutability": "nonpayable",
      "type": "function"
    },
    {
      "inputs": [],
      "name": "trustedCaller",
      "outputs": [
        {
          "internalType": "address",
          "name": "",
          "type": "address"
        }
      ],
      "stateMutability": "view",
      "type": "function"
    }
  ],
  "bytecode": "0x608060405234801561001057600080fd5b5033600160006101000a81548173ffffffffffffffffffffffffffffffffffffffff021916908373ffffffffffffffffffffffffffffffffffffffff160217905550610a5a806100616000396000f3fe608060405234801561001057600080fd5b50600436106100575760003560e01c80631dd7cecf1461005c578063268f07601461008c57806383efe25c146100aa578063ea40ae14146100c6578063f50af163146100e2575b600080fd5b61007660048036038101906100719190610610565b6100fe565b6040516100839190610689565b60405180910390f35b610094610166565b6040516100a191906106b3565b60405180910390f35b6100c460048036038101906100bf91906106fa565b61018c565b005b6100e060048036038101906100db919061076e565b61034d565b005b6100fc60048036038101906100f791906106fa565b610421565b005b60008060008573ffffffffffffffffffffffffffffffffffffffff1673ffffffffffffffffffffffffffffffffffffffff168152602001908152602001600020838360405161014e9291906107da565b90815260200160405180910390205490509392505050565b600160009054906101000a900473ffffffffffffffffffffffffffffffffffffffff1681565b600081136101cf576040517f08c379a00000000000000000000000000000000000000000000000000000000081526004016101c690610850565b60405180910390fd5b806000808673ffffffffffffffffffffffffffffffffffffffff1673ffffffffffffffffffffffffffffffffffffffff168152602001908152602001600020848460405161021e9291906107da565b908152602001604051809103902054121561026e576040517f08c379a0000000000000000000000000000000000000000000000000000000008152600401610265906108bc565b60405180910390fd5b806000808673ffffffffffffffffffffffffffffffffffffffff1673ffffffffffffffffffffffffffffffffffffffff16815260200190815260200160002084846040516102bd9291906107da565b908152602001604051809103902060008282546102da919061090b565b9250508190555082826040516102f19291906107da565b60405180910390208473ffffffffffffffffffffffffffffffffffffffff167f7f3e34126fc6cad6151ac640f1da53beeda29f5093b8c10ed6dc40b465cdc7e88360405161033f9190610689565b60405180910390a350505050565b600160009054906101000a900473ffffffffffffffffffffffffffffffffffffffff1673ffffffffffffffffffffffffffffffffffffffff163373ffffffffffffffffffffffffffffffffffffffff16146103dd576040517f08c379a00000000000000000000000000000000000000000000000000000000081526004016103d4906109c0565b60405180910390fd5b80600160006101000a81548173ffffffffffffffffffffffffffffffffffffffff021916908373ffffffffffffffffffffffffffffffffffffffff16021790555050565b60008113610464576040517f08c379a000000000000000000000000000000000000000000000000000000000815260040161045b90610850565b60405180910390fd5b806000808673ffffffffffffffffffffffffffffffffffffffff1673ffffffffffffffffffffffffffffffffffffffff16815260200190815260200160002084846040516104b39291906107da565b908152602001604051809103902060008282546104d091906109e0565b9250508190555082826040516104e79291906107da565b60405180910390208473ffffffffffffffffffffffffffffffffffffffff167f40115254dc2481a33e6b6b0a039f1fbb493ccf4e286b5ca02205d2960bbc5618836040516105359190610689565b60405180910390a350505050565b600080fd5b600080fd5b600073ffffffffffffffffffffffffffffffffffffffff82169050919050565b60006105788261054d565b9050919050565b6105888161056d565b811461059357600080fd5b50565b6000813590506105a58161057f565b92915050565b600080fd5b600080fd5b600080fd5b60008083601f8401126105d0576105cf6105ab565b5b8235905067ffffffffffffffff8111156105ed576105ec6105b0565b5b602083019150836001820283011115610609576106086105b5565b5b9250929050565b60008060006040848603121561062957610628610543565b5b600061063786828701610596565b935050602084013567ffffffffffffffff81111561065857610657610548565b5b610664868287016105ba565b92509250509250925092565b6000819050919050565b61068381610670565b82525050565b600060208201905061069e600083018461067a565b92915050565b6106ad8161056d565b82525050565b60006020820190506106c860008301846106a4565b92915050565b6106d781610670565b81146106e257600080fd5b50565b6000813590506106f4816106ce565b92915050565b6000806000806060858703121561071457610713610543565b5b600061072287828801610596565b945050602085013567ffffffffffffffff81111561074357610742610548565b5b61074f878288016105ba565b93509350506040610762878288016106e5565b91505092959194509250565b60006020828403121561078457610783610543565b5b600061079284828501610596565b91505092915050565b600081905092915050565b82818337600083830152505050565b60006107c1838561079b565b93506107ce8385846107a6565b82840190509392505050565b60006107e78284866107b5565b91508190509392505050565b600082825260208201905092915050565b7f56616c6f7220707265636973612073657220706f73697469766f000000000000600082015250565b600061083a601a836107f3565b915061084582610804565b602082019050919050565b600060208201905081810360008301526108698161082d565b9050919050565b7f53616c646f20696e737566696369656e74650000000000000000000000000000600082015250565b60006108a66012836107f3565b91506108b182610870565b602082019050919050565b600060208201905081810360008301526108d581610899565b9050919050565b7f4e487b7100000000000000000000000000000000000000000000000000000000600052601160045260246000fd5b600061091682610670565b915061092183610670565b9250828203905081811260008412168282136000851215161715610948576109476108dc565b5b92915050565b7f536f6d656e7465206f20636f6e747261746f20617475616c20706f646520646560008201527f6c65676172000000000000000000000000000000000000000000000000000000602082015250565b60006109aa6025836107f3565b91506109b58261094e565b604082019050919050565b600060208201905081810360008301526109d98161099d565b9050919050565b60006109eb82610670565b91506109f683610670565b925082820190508281121560008312168382126000841215161715610a1e57610a1d6108dc565b5b9291505056fea2646970667358221220501ff7aef9e6845000bf7ae667f856d2f120685bfafdfde01bbb2d80743d7ee664736f6c63430008140033",
  "linkReferences": {},
  "deployedLinkReferences": {}
}